{
  "contractName": "GradientToken",
  "abi": [
    {
      "constant": true,
      "inputs": [],
      "name": "name",
      "outputs": [
        {
          "name": "",
          "type": "string"
        }
      ],
      "payable": false,
      "stateMutability": "view",
      "type": "function"
    },
    {
      "constant": false,
      "inputs": [
        {
          "name": "_to",
          "type": "address"
        },
        {
          "name": "_tokenId",
          "type": "uint256"
        }
      ],
      "name": "approve",
      "outputs": [],
      "payable": false,
      "stateMutability": "nonpayable",
      "type": "function"
    },
    {
      "constant": true,
      "inputs": [],
      "name": "totalSupply",
      "outputs": [
        {
          "name": "",
          "type": "uint256"
        }
      ],
      "payable": false,
      "stateMutability": "view",
      "type": "function"
    },
    {
      "constant": true,
      "inputs": [
        {
          "name": "_tokenId",
          "type": "uint256"
        }
      ],
      "name": "approvedFor",
      "outputs": [
        {
          "name": "",
          "type": "address"
        }
      ],
      "payable": false,
      "stateMutability": "view",
      "type": "function"
    },
    {
      "constant": true,
      "inputs": [
        {
          "name": "_owner",
          "type": "address"
        }
      ],
      "name": "tokensOf",
      "outputs": [
        {
          "name": "",
          "type": "uint256[]"
        }
      ],
      "payable": false,
      "stateMutability": "view",
      "type": "function"
    },
    {
      "constant": true,
      "inputs": [
        {
          "name": "_tokenId",
          "type": "uint256"
        }
      ],
      "name": "ownerOf",
      "outputs": [
        {
          "name": "",
          "type": "address"
        }
      ],
      "payable": false,
      "stateMutability": "view",
      "type": "function"
    },
    {
      "constant": true,
      "inputs": [
        {
          "name": "_owner",
          "type": "address"
        }
      ],
      "name": "balanceOf",
      "outputs": [
        {
          "name": "",
          "type": "uint256"
        }
      ],
      "payable": false,
      "stateMutability": "view",
      "type": "function"
    },
    {
      "constant": true,
      "inputs": [],
      "name": "owner",
      "outputs": [
        {
          "name": "",
          "type": "address"
        }
      ],
      "payable": false,
      "stateMutability": "view",
      "type": "function"
    },
    {
      "constant": true,
      "inputs": [],
      "name": "symbol",
      "outputs": [
        {
          "name": "",
          "type": "string"
        }
      ],
      "payable": false,
      "stateMutability": "view",
      "type": "function"
    },
    {
      "constant": true,
      "inputs": [
        {
          "name": "",
          "type": "uint256"
        }
      ],
      "name": "gradients",
      "outputs": [
        {
          "name": "outer",
          "type": "string"
        },
        {
          "name": "inner",
          "type": "string"
        }
      ],
      "payable": false,
      "stateMutability": "view",
      "type": "function"
    },
    {
      "constant": false,
      "inputs": [
        {
          "name": "_to",
          "type": "address"
        },
        {
          "name": "_tokenId",
          "type": "uint256"
        }
      ],
      "name": "transfer",
      "outputs": [],
      "payable": false,
      "stateMutability": "nonpayable",
      "type": "function"
    },
    {
      "constant": false,
      "inputs": [
        {
          "name": "_tokenId",
          "type": "uint256"
        }
      ],
      "name": "takeOwnership",
      "outputs": [],
      "payable": false,
      "stateMutability": "nonpayable",
      "type": "function"
    },
    {
      "constant": false,
      "inputs": [
        {
          "name": "newOwner",
          "type": "address"
        }
      ],
      "name": "transferOwnership",
      "outputs": [],
      "payable": false,
      "stateMutability": "nonpayable",
      "type": "function"
    },
    {
      "anonymous": false,
      "inputs": [
        {
          "indexed": true,
          "name": "previousOwner",
          "type": "address"
        },
        {
          "indexed": true,
          "name": "newOwner",
          "type": "address"
        }
      ],
      "name": "OwnershipTransferred",
      "type": "event"
    },
    {
      "anonymous": false,
      "inputs": [
        {
          "indexed": true,
          "name": "_from",
          "type": "address"
        },
        {
          "indexed": true,
          "name": "_to",
          "type": "address"
        },
        {
          "indexed": false,
          "name": "_tokenId",
          "type": "uint256"
        }
      ],
      "name": "Transfer",
      "type": "event"
    },
    {
      "anonymous": false,
      "inputs": [
        {
          "indexed": true,
          "name": "_owner",
          "type": "address"
        },
        {
          "indexed": true,
          "name": "_approved",
          "type": "address"
        },
        {
          "indexed": false,
          "name": "_tokenId",
          "type": "uint256"
        }
      ],
      "name": "Approval",
      "type": "event"
    },
    {
      "constant": true,
      "inputs": [
        {
          "name": "_gradientId",
          "type": "uint256"
        }
      ],
      "name": "getGradient",
      "outputs": [
        {
          "name": "outer",
          "type": "string"
        },
        {
          "name": "inner",
          "type": "string"
        }
      ],
      "payable": false,
      "stateMutability": "view",
      "type": "function"
    },
    {
      "constant": false,
      "inputs": [
        {
          "name": "_outer",
          "type": "string"
        },
        {
          "name": "_inner",
          "type": "string"
        }
      ],
      "name": "mint",
      "outputs": [],
      "payable": true,
      "stateMutability": "payable",
      "type": "function"
    }
  ],
  "bytecode": "0x60606040526010600655600654600a0a60075533600560006101000a81548173ffffffffffffffffffffffffffffffffffffffff021916908373ffffffffffffffffffffffffffffffffffffffff160217905550611bbe806100626000396000f3006060604052600436106100db576000357c0100000000000000000000000000000000000000000000000000000000900463ffffffff16806306fdde03146100e0578063095ea7b31461016e57806318160ddd146101b05780632a6dd48f146101d95780635a3f26721461023c5780636352211e146102ca57806370a082311461032d5780638aa0fdad1461037a5780638da5cb5b1461040f57806395d89b4114610464578063a7c5ecf6146104f2578063a9059cbb14610634578063b2e6ceeb14610676578063d927f09e14610699578063f2fde38b146107a1575b600080fd5b34156100eb57600080fd5b6100f36107da565b6040518080602001828103825283818151815260200191508051906020019080838360005b83811015610133578082015181840152602081019050610118565b50505050905090810190601f1680156101605780820380516001836020036101000a031916815260200191505b509250505060405180910390f35b341561017957600080fd5b6101ae600480803573ffffffffffffffffffffffffffffffffffffffff16906020019091908035906020019091905050610813565b005b34156101bb57600080fd5b6101c36109a6565b6040518082815260200191505060405180910390f35b34156101e457600080fd5b6101fa60048080359060200190919050506109af565b604051808273ffffffffffffffffffffffffffffffffffffffff1673ffffffffffffffffffffffffffffffffffffffff16815260200191505060405180910390f35b341561024757600080fd5b610273600480803573ffffffffffffffffffffffffffffffffffffffff169060200190919050506109ec565b6040518080602001828103825283818151815260200191508051906020019060200280838360005b838110156102b657808201518184015260208101905061029b565b505050509050019250505060405180910390f35b34156102d557600080fd5b6102eb6004808035906020019091905050610a89565b604051808273ffffffffffffffffffffffffffffffffffffffff1673ffffffffffffffffffffffffffffffffffffffff16815260200191505060405180910390f35b341561033857600080fd5b610364600480803573ffffffffffffffffffffffffffffffffffffffff16906020019091905050610b07565b6040518082815260200191505060405180910390f35b61040d600480803590602001908201803590602001908080601f0160208091040260200160405190810160405280939291908181526020018383808284378201915050505050509190803590602001908201803590602001908080601f01602080910402602001604051908101604052809392919081815260200183838082843782019150505050505091905050610b53565b005b341561041a57600080fd5b610422610c5b565b604051808273ffffffffffffffffffffffffffffffffffffffff1673ffffffffffffffffffffffffffffffffffffffff16815260200191505060405180910390f35b341561046f57600080fd5b610477610c81565b6040518080602001828103825283818151815260200191508051906020019080838360005b838110156104b757808201518184015260208101905061049c565b50505050905090810190601f1680156104e45780820380516001836020036101000a031916815260200191505b509250505060405180910390f35b34156104fd57600080fd5b6105136004808035906020019091905050610cba565b6040518080602001806020018381038352858181546001816001161561010002031660029004815260200191508054600181600116156101000203166002900480156105a05780601f10610575576101008083540402835291602001916105a0565b820191906000526020600020905b81548152906001019060200180831161058357829003601f168201915b50508381038252848181546001816001161561010002031660029004815260200191508054600181600116156101000203166002900480156106235780601f106105f857610100808354040283529160200191610623565b820191906000526020600020905b81548152906001019060200180831161060657829003601f168201915b505094505050505060405180910390f35b341561063f57600080fd5b610674600480803573ffffffffffffffffffffffffffffffffffffffff16906020019091908035906020019091905050610ceb565b005b341561068157600080fd5b6106976004808035906020019091905050610d3e565b005b34156106a457600080fd5b6106ba6004808035906020019091905050610d69565b604051808060200180602001838103835285818151815260200191508051906020019080838360005b838110156106fe5780820151818401526020810190506106e3565b50505050905090810190601f16801561072b5780820380516001836020036101000a031916815260200191505b50838103825284818151815260200191508051906020019080838360005b83811015610764578082015181840152602081019050610749565b50505050905090810190601f1680156107915780820380516001836020036101000a031916815260200191505b5094505050505060405180910390f35b34156107ac57600080fd5b6107d8600480803573ffffffffffffffffffffffffffffffffffffffff16906020019091905050610f03565b005b6040805190810160405280600d81526020017f4772616469656e74546f6b656e0000000000000000000000000000000000000081525081565b6000813373ffffffffffffffffffffffffffffffffffffffff1661083682610a89565b73ffffffffffffffffffffffffffffffffffffffff1614151561085857600080fd5b61086183610a89565b91508173ffffffffffffffffffffffffffffffffffffffff168473ffffffffffffffffffffffffffffffffffffffff161415151561089e57600080fd5b60006108a9846109af565b73ffffffffffffffffffffffffffffffffffffffff161415806108e3575060008473ffffffffffffffffffffffffffffffffffffffff1614155b156109a057836002600085815260200190815260200160002060006101000a81548173ffffffffffffffffffffffffffffffffffffffff021916908373ffffffffffffffffffffffffffffffffffffffff1602179055508373ffffffffffffffffffffffffffffffffffffffff168273ffffffffffffffffffffffffffffffffffffffff167f8c5be1e5ebec7d5bd14f71427d1e84f3dd0314c0f7b2291e5b200ac8c7c3b925856040518082815260200191505060405180910390a35b50505050565b60008054905090565b60006002600083815260200190815260200160002060009054906101000a900473ffffffffffffffffffffffffffffffffffffffff169050919050565b6109f4611966565b600360008373ffffffffffffffffffffffffffffffffffffffff1673ffffffffffffffffffffffffffffffffffffffff168152602001908152602001600020805480602002602001604051908101604052809291908181526020018280548015610a7d57602002820191906000526020600020905b815481526020019060010190808311610a69575b50505050509050919050565b6000806001600084815260200190815260200160002060009054906101000a900473ffffffffffffffffffffffffffffffffffffffff169050600073ffffffffffffffffffffffffffffffffffffffff168173ffffffffffffffffffffffffffffffffffffffff1614151515610afe57600080fd5b80915050919050565b6000600360008373ffffffffffffffffffffffffffffffffffffffff1673ffffffffffffffffffffffffffffffffffffffff168152602001908152602001600020805490509050919050565b610b5b61197a565b6000600560009054906101000a900473ffffffffffffffffffffffffffffffffffffffff1673ffffffffffffffffffffffffffffffffffffffff163373ffffffffffffffffffffffffffffffffffffffff16141515610bb957600080fd5b6040805190810160405280858152602001610bdb610bd68761105b565b6110dd565b8152509150600160088054806001018281610bf691906119a0565b916000526020600020906002020160008590919091506000820151816000019080519060200190610c289291906119d2565b506020820151816001019080519060200190610c459291906119d2565b505050039050610c55338261122f565b50505050565b600560009054906101000a900473ffffffffffffffffffffffffffffffffffffffff1681565b6040805190810160405280600481526020017f475241440000000000000000000000000000000000000000000000000000000081525081565b600881815481101515610cc957fe5b9060005260206000209060020201600091509050806000019080600101905082565b803373ffffffffffffffffffffffffffffffffffffffff16610d0c82610a89565b73ffffffffffffffffffffffffffffffffffffffff16141515610d2e57600080fd5b610d393384846112c9565b505050565b610d483382611412565b1515610d5357600080fd5b610d66610d5f82610a89565b33836112c9565b50565b610d71611a52565b610d79611a52565b610d8161197a565b600884815481101515610d9057fe5b9060005260206000209060020201604080519081016040529081600082018054600181600116156101000203166002900480601f016020809104026020016040519081016040528092919081815260200182805460018160011615610100020316600290048015610e425780601f10610e1757610100808354040283529160200191610e42565b820191906000526020600020905b815481529060010190602001808311610e2557829003601f168201915b50505050508152602001600182018054600181600116156101000203166002900480601f016020809104026020016040519081016040528092919081815260200182805460018160011615610100020316600290048015610ee45780601f10610eb957610100808354040283529160200191610ee4565b820191906000526020600020905b815481529060010190602001808311610ec757829003601f168201915b5050505050815250509050806000015192508060200151915050915091565b600560009054906101000a900473ffffffffffffffffffffffffffffffffffffffff1673ffffffffffffffffffffffffffffffffffffffff163373ffffffffffffffffffffffffffffffffffffffff16141515610f5f57600080fd5b600073ffffffffffffffffffffffffffffffffffffffff168173ffffffffffffffffffffffffffffffffffffffff1614151515610f9b57600080fd5b8073ffffffffffffffffffffffffffffffffffffffff16600560009054906101000a900473ffffffffffffffffffffffffffffffffffffffff1673ffffffffffffffffffffffffffffffffffffffff167f8be0079c531659141344cd1fd0a4f28419497f9722a3daafe3b4186f6b6457e060405160405180910390a380600560006101000a81548173ffffffffffffffffffffffffffffffffffffffff021916908373ffffffffffffffffffffffffffffffffffffffff16021790555050565b600080826040518082805190602001908083835b602083101515611094578051825260208201915060208101905060208303925061106f565b6001836020036101000a0380198251168184511680821785525050505050509050019150506040518091039020600190049050600754818115156110d457fe5b06915050919050565b6110e5611a52565b6000806110f0611a66565b600080861415611137576040805190810160405280600181526020017f30000000000000000000000000000000000000000000000000000000000000008152509450611226565b8593505b600084141515611161578280600101935050600a8481151561115957fe5b04935061113b565b8260405180591061116f5750595b9080825280601f01601f191660200182016040525091506001830390505b60008614151561122257600a868115156111a357fe5b066030017f0100000000000000000000000000000000000000000000000000000000000000028282806001900393508151811015156111de57fe5b9060200101907effffffffffffffffffffffffffffffffffffffffffffffffffffffffffffff1916908160001a905350600a8681151561121a57fe5b04955061118d565b8194505b50505050919050565b600073ffffffffffffffffffffffffffffffffffffffff168273ffffffffffffffffffffffffffffffffffffffff161415151561126b57600080fd5b6112758282611453565b8173ffffffffffffffffffffffffffffffffffffffff1660007fddf252ad1be2c89b69c2b068fc378daa952ba7f163c4a11628f55a4df523b3ef836040518082815260200191505060405180910390a35050565b600073ffffffffffffffffffffffffffffffffffffffff168273ffffffffffffffffffffffffffffffffffffffff161415151561130557600080fd5b61130e81610a89565b73ffffffffffffffffffffffffffffffffffffffff168273ffffffffffffffffffffffffffffffffffffffff161415151561134857600080fd5b8273ffffffffffffffffffffffffffffffffffffffff1661136882610a89565b73ffffffffffffffffffffffffffffffffffffffff1614151561138a57600080fd5b61139483826115be565b61139e83826116a7565b6113a88282611453565b8173ffffffffffffffffffffffffffffffffffffffff168373ffffffffffffffffffffffffffffffffffffffff167fddf252ad1be2c89b69c2b068fc378daa952ba7f163c4a11628f55a4df523b3ef836040518082815260200191505060405180910390a3505050565b60008273ffffffffffffffffffffffffffffffffffffffff16611434836109af565b73ffffffffffffffffffffffffffffffffffffffff1614905092915050565b60008073ffffffffffffffffffffffffffffffffffffffff166001600084815260200190815260200160002060009054906101000a900473ffffffffffffffffffffffffffffffffffffffff1673ffffffffffffffffffffffffffffffffffffffff161415156114c257600080fd5b826001600084815260200190815260200160002060006101000a81548173ffffffffffffffffffffffffffffffffffffffff021916908373ffffffffffffffffffffffffffffffffffffffff16021790555061151d83610b07565b9050600360008473ffffffffffffffffffffffffffffffffffffffff1673ffffffffffffffffffffffffffffffffffffffff16815260200190815260200160002080548060010182816115709190611a7a565b9160005260206000209001600084909190915055508060046000848152602001908152602001600020819055506115b3600160005461192f90919063ffffffff16565b600081905550505050565b8173ffffffffffffffffffffffffffffffffffffffff166115de82610a89565b73ffffffffffffffffffffffffffffffffffffffff1614151561160057600080fd5b60006002600083815260200190815260200160002060006101000a81548173ffffffffffffffffffffffffffffffffffffffff021916908373ffffffffffffffffffffffffffffffffffffffff16021790555060008273ffffffffffffffffffffffffffffffffffffffff167f8c5be1e5ebec7d5bd14f71427d1e84f3dd0314c0f7b2291e5b200ac8c7c3b925836040518082815260200191505060405180910390a35050565b60008060008473ffffffffffffffffffffffffffffffffffffffff166116cc85610a89565b73ffffffffffffffffffffffffffffffffffffffff161415156116ee57600080fd5b60046000858152602001908152602001600020549250611720600161171287610b07565b61194d90919063ffffffff16565b9150600360008673ffffffffffffffffffffffffffffffffffffffff1673ffffffffffffffffffffffffffffffffffffffff1681526020019081526020016000208281548110151561176e57fe5b906000526020600020900154905060006001600086815260200190815260200160002060006101000a81548173ffffffffffffffffffffffffffffffffffffffff021916908373ffffffffffffffffffffffffffffffffffffffff16021790555080600360008773ffffffffffffffffffffffffffffffffffffffff1673ffffffffffffffffffffffffffffffffffffffff1681526020019081526020016000208481548110151561181c57fe5b9060005260206000209001819055506000600360008773ffffffffffffffffffffffffffffffffffffffff1673ffffffffffffffffffffffffffffffffffffffff1681526020019081526020016000208381548110151561187957fe5b906000526020600020900181905550600360008673ffffffffffffffffffffffffffffffffffffffff1673ffffffffffffffffffffffffffffffffffffffff1681526020019081526020016000208054809190600190036118da9190611aa6565b5060006004600086815260200190815260200160002081905550826004600083815260200190815260200160002081905550611922600160005461194d90919063ffffffff16565b6000819055505050505050565b600080828401905083811015151561194357fe5b8091505092915050565b600082821115151561195b57fe5b818303905092915050565b602060405190810160405280600081525090565b604080519081016040528061198d611ad2565b815260200161199a611ad2565b81525090565b8154818355818115116119cd576002028160020283600052602060002091820191016119cc9190611ae6565b5b505050565b828054600181600116156101000203166002900490600052602060002090601f016020900481019282601f10611a1357805160ff1916838001178555611a41565b82800160010185558215611a41579182015b82811115611a40578251825591602001919060010190611a25565b5b509050611a4e9190611b25565b5090565b602060405190810160405280600081525090565b602060405190810160405280600081525090565b815481835581811511611aa157818360005260206000209182019101611aa09190611b25565b5b505050565b815481835581811511611acd57818360005260206000209182019101611acc9190611b25565b5b505050565b602060405190810160405280600081525090565b611b2291905b80821115611b1e5760008082016000611b059190611b4a565b600182016000611b159190611b4a565b50600201611aec565b5090565b90565b611b4791905b80821115611b43576000816000905550600101611b2b565b5090565b90565b50805460018160011615610100020316600290046000825580601f10611b705750611b8f565b601f016020900490600052602060002090810190611b8e9190611b25565b5b505600a165627a7a72305820518091f93f7f2bdc0bc2406300e9d3728efb4a7a7a2642f1e2ce31a585ad61310029",
  "source": "pragma solidity ^0.4.17;\r\n\r\nimport 'zeppelin-solidity/contracts/token/ERC721/ERC721Token.sol';\r\nimport 'zeppelin-solidity/contracts/ownership/Ownable.sol';\r\n\r\ncontract GradientToken is ERC721Token, Ownable {\r\n  string public constant name = \"GradientToken\";\r\n  string public constant symbol = \"GRAD\";\r\n\r\n  uint dnaDigits = 16;\r\n  uint dnaModulus = 10 ** dnaDigits;\r\n\r\n\r\n  struct Gradient {\r\n    string outer;\r\n    string inner;\r\n  }\r\n\r\n  Gradient[] public gradients;\r\n\r\n  function getGradient( uint _gradientId ) public view returns(string outer, string inner){\r\n    Gradient memory _grad = gradients[_gradientId];\r\n\r\n    outer = _grad.outer;\r\n    inner = _grad.inner;\r\n  }\r\n\r\n  function uint2str(uint _i) internal pure returns (string memory _uintAsString) {\r\n        if (_i == 0) {\r\n            return \"0\";\r\n        }\r\n        uint j = _i;\r\n        uint len;\r\n        while (j != 0) {\r\n            len++;\r\n            j /= 10;\r\n        }\r\n        bytes memory bstr = new bytes(len);\r\n        uint k = len - 1;\r\n        while (_i != 0) {\r\n            bstr[k--] = byte(uint8(48 + _i % 10));\r\n            _i /= 10;\r\n        }\r\n        return string(bstr);\r\n  }\r\n\r\n  function mint(string _outer, string _inner) public payable onlyOwner{\r\n        \r\n    Gradient memory _gradient = Gradient({ outer: _outer, inner: uint2str(_generateRandomDna(_outer)) });\r\n    uint _gradientId = gradients.push(_gradient) - 1;\r\n\r\n    _mint(msg.sender, _gradientId);\r\n  }\r\n\r\n  function _generateRandomDna(string _str) private view returns (uint) {\r\n        uint rand = uint(keccak256(_str));\r\n        return rand % dnaModulus;\r\n  }\r\n\r\n}\r\n",
  "sourcePath": "E:/blockchain/gradient2/contracts/GradientToken.sol",
  "compiler": {
    "name": "solc",
    "version": "0.4.18+commit.9cf6e910.Emscripten.clang"
  },
  "schemaVersion": "3.2.3",
  "updatedAt": "2020-08-28T22:05:14.528Z",
  "networkType": "ethereum",
  "devdoc": {
    "methods": {
      "approve(address,uint256)": {
        "details": "Approves another address to claim for the ownership of the given token ID",
        "params": {
          "_to": "address to be approved for the given token ID",
          "_tokenId": "uint256 ID of the token to be approved"
        }
      },
      "approvedFor(uint256)": {
        "details": "Gets the approved address to take ownership of a given token ID",
        "params": {
          "_tokenId": "uint256 ID of the token to query the approval of"
        },
        "return": "address currently approved to take ownership of the given token ID"
      },
      "balanceOf(address)": {
        "details": "Gets the balance of the specified address",
        "params": {
          "_owner": "address to query the balance of"
        },
        "return": "uint256 representing the amount owned by the passed address"
      },
      "ownerOf(uint256)": {
        "details": "Gets the owner of the specified token ID",
        "params": {
          "_tokenId": "uint256 ID of the token to query the owner of"
        },
        "return": "owner address currently marked as the owner of the given token ID"
      },
      "takeOwnership(uint256)": {
        "details": "Claims the ownership of a given token ID",
        "params": {
          "_tokenId": "uint256 ID of the token being claimed by the msg.sender"
        }
      },
      "tokensOf(address)": {
        "details": "Gets the list of tokens owned by a given address",
        "params": {
          "_owner": "address to query the tokens of"
        },
        "return": "uint256[] representing the list of tokens owned by the passed address"
      },
      "totalSupply()": {
        "details": "Gets the total amount of tokens stored by the contract",
        "return": "uint256 representing the total amount of tokens"
      },
      "transfer(address,uint256)": {
        "details": "Transfers the ownership of a given token ID to another address",
        "params": {
          "_to": "address to receive the ownership of the given token ID",
          "_tokenId": "uint256 ID of the token to be transferred"
        }
      },
      "transferOwnership(address)": {
        "details": "Allows the current owner to transfer control of the contract to a newOwner.",
        "params": {
          "newOwner": "The address to transfer ownership to."
        }
      }
    }
  },
  "userdoc": {
    "methods": {}
  }
}